{
  "_format": "hh-sol-artifact-1",
  "contractName": "NFTFileScanner",
  "sourceName": "contracts/NFTFileScanner.sol",
  "abi": [
    {
      "inputs": [],
      "stateMutability": "nonpayable",
      "type": "constructor"
    },
    {
      "anonymous": false,
      "inputs": [
        {
          "indexed": true,
          "internalType": "address",
          "name": "owner",
          "type": "address"
        },
        {
          "indexed": true,
          "internalType": "address",
          "name": "approved",
          "type": "address"
        },
        {
          "indexed": true,
          "internalType": "uint256",
          "name": "tokenId",
          "type": "uint256"
        }
      ],
      "name": "Approval",
      "type": "event"
    },
    {
      "anonymous": false,
      "inputs": [
        {
          "indexed": true,
          "internalType": "address",
          "name": "owner",
          "type": "address"
        },
        {
          "indexed": true,
          "internalType": "address",
          "name": "operator",
          "type": "address"
        },
        {
          "indexed": false,
          "internalType": "bool",
          "name": "approved",
          "type": "bool"
        }
      ],
      "name": "ApprovalForAll",
      "type": "event"
    },
    {
      "anonymous": false,
      "inputs": [
        {
          "indexed": false,
          "internalType": "uint256",
          "name": "_fromTokenId",
          "type": "uint256"
        },
        {
          "indexed": false,
          "internalType": "uint256",
          "name": "_toTokenId",
          "type": "uint256"
        }
      ],
      "name": "BatchMetadataUpdate",
      "type": "event"
    },
    {
      "anonymous": false,
      "inputs": [
        {
          "indexed": false,
          "internalType": "uint256",
          "name": "_tokenId",
          "type": "uint256"
        }
      ],
      "name": "MetadataUpdate",
      "type": "event"
    },
    {
      "anonymous": false,
      "inputs": [
        {
          "indexed": true,
          "internalType": "address",
          "name": "previousOwner",
          "type": "address"
        },
        {
          "indexed": true,
          "internalType": "address",
          "name": "newOwner",
          "type": "address"
        }
      ],
      "name": "OwnershipTransferred",
      "type": "event"
    },
    {
      "anonymous": false,
      "inputs": [
        {
          "indexed": true,
          "internalType": "address",
          "name": "from",
          "type": "address"
        },
        {
          "indexed": true,
          "internalType": "address",
          "name": "to",
          "type": "address"
        },
        {
          "indexed": true,
          "internalType": "uint256",
          "name": "tokenId",
          "type": "uint256"
        }
      ],
      "name": "Transfer",
      "type": "event"
    },
    {
      "inputs": [
        {
          "internalType": "address",
          "name": "to",
          "type": "address"
        },
        {
          "internalType": "uint256",
          "name": "tokenId",
          "type": "uint256"
        }
      ],
      "name": "approve",
      "outputs": [],
      "stateMutability": "nonpayable",
      "type": "function"
    },
    {
      "inputs": [
        {
          "internalType": "address",
          "name": "owner",
          "type": "address"
        }
      ],
      "name": "balanceOf",
      "outputs": [
        {
          "internalType": "uint256",
          "name": "",
          "type": "uint256"
        }
      ],
      "stateMutability": "view",
      "type": "function"
    },
    {
      "inputs": [
        {
          "internalType": "uint256",
          "name": "tokenId",
          "type": "uint256"
        }
      ],
      "name": "getApproved",
      "outputs": [
        {
          "internalType": "address",
          "name": "",
          "type": "address"
        }
      ],
      "stateMutability": "view",
      "type": "function"
    },
    {
      "inputs": [],
      "name": "getMyNFTsData",
      "outputs": [
        {
          "components": [
            {
              "internalType": "uint256",
              "name": "tokenId",
              "type": "uint256"
            },
            {
              "internalType": "string",
              "name": "name",
              "type": "string"
            },
            {
              "internalType": "string",
              "name": "ipfsData",
              "type": "string"
            },
            {
              "internalType": "string",
              "name": "ipfsSvg",
              "type": "string"
            }
          ],
          "internalType": "struct NFTFileScanner.NFTData[]",
          "name": "",
          "type": "tuple[]"
        }
      ],
      "stateMutability": "view",
      "type": "function"
    },
    {
      "inputs": [
        {
          "internalType": "address",
          "name": "owner",
          "type": "address"
        },
        {
          "internalType": "address",
          "name": "operator",
          "type": "address"
        }
      ],
      "name": "isApprovedForAll",
      "outputs": [
        {
          "internalType": "bool",
          "name": "",
          "type": "bool"
        }
      ],
      "stateMutability": "view",
      "type": "function"
    },
    {
      "inputs": [],
      "name": "name",
      "outputs": [
        {
          "internalType": "string",
          "name": "",
          "type": "string"
        }
      ],
      "stateMutability": "view",
      "type": "function"
    },
    {
      "inputs": [],
      "name": "owner",
      "outputs": [
        {
          "internalType": "address",
          "name": "",
          "type": "address"
        }
      ],
      "stateMutability": "view",
      "type": "function"
    },
    {
      "inputs": [
        {
          "internalType": "uint256",
          "name": "tokenId",
          "type": "uint256"
        }
      ],
      "name": "ownerOf",
      "outputs": [
        {
          "internalType": "address",
          "name": "",
          "type": "address"
        }
      ],
      "stateMutability": "view",
      "type": "function"
    },
    {
      "inputs": [],
      "name": "renounceOwnership",
      "outputs": [],
      "stateMutability": "nonpayable",
      "type": "function"
    },
    {
      "inputs": [
        {
          "internalType": "string",
          "name": "uri",
          "type": "string"
        },
        {
          "internalType": "string",
          "name": "name",
          "type": "string"
        },
        {
          "internalType": "string",
          "name": "ipfsData",
          "type": "string"
        },
        {
          "internalType": "string",
          "name": "svgData",
          "type": "string"
        }
      ],
      "name": "safeMint",
      "outputs": [],
      "stateMutability": "nonpayable",
      "type": "function"
    },
    {
      "inputs": [
        {
          "internalType": "address",
          "name": "from",
          "type": "address"
        },
        {
          "internalType": "address",
          "name": "to",
          "type": "address"
        },
        {
          "internalType": "uint256",
          "name": "tokenId",
          "type": "uint256"
        }
      ],
      "name": "safeTransferFrom",
      "outputs": [],
      "stateMutability": "nonpayable",
      "type": "function"
    },
    {
      "inputs": [
        {
          "internalType": "address",
          "name": "from",
          "type": "address"
        },
        {
          "internalType": "address",
          "name": "to",
          "type": "address"
        },
        {
          "internalType": "uint256",
          "name": "tokenId",
          "type": "uint256"
        },
        {
          "internalType": "bytes",
          "name": "data",
          "type": "bytes"
        }
      ],
      "name": "safeTransferFrom",
      "outputs": [],
      "stateMutability": "nonpayable",
      "type": "function"
    },
    {
      "inputs": [
        {
          "internalType": "address",
          "name": "operator",
          "type": "address"
        },
        {
          "internalType": "bool",
          "name": "approved",
          "type": "bool"
        }
      ],
      "name": "setApprovalForAll",
      "outputs": [],
      "stateMutability": "nonpayable",
      "type": "function"
    },
    {
      "inputs": [
        {
          "internalType": "bytes4",
          "name": "interfaceId",
          "type": "bytes4"
        }
      ],
      "name": "supportsInterface",
      "outputs": [
        {
          "internalType": "bool",
          "name": "",
          "type": "bool"
        }
      ],
      "stateMutability": "view",
      "type": "function"
    },
    {
      "inputs": [],
      "name": "symbol",
      "outputs": [
        {
          "internalType": "string",
          "name": "",
          "type": "string"
        }
      ],
      "stateMutability": "view",
      "type": "function"
    },
    {
      "inputs": [
        {
          "internalType": "uint256",
          "name": "tokenId",
          "type": "uint256"
        }
      ],
      "name": "tokenURI",
      "outputs": [
        {
          "internalType": "string",
          "name": "",
          "type": "string"
        }
      ],
      "stateMutability": "view",
      "type": "function"
    },
    {
      "inputs": [
        {
          "internalType": "address",
          "name": "from",
          "type": "address"
        },
        {
          "internalType": "address",
          "name": "to",
          "type": "address"
        },
        {
          "internalType": "uint256",
          "name": "tokenId",
          "type": "uint256"
        }
      ],
      "name": "transferFrom",
      "outputs": [],
      "stateMutability": "nonpayable",
      "type": "function"
    },
    {
      "inputs": [
        {
          "internalType": "address",
          "name": "newOwner",
          "type": "address"
        }
      ],
      "name": "transferOwnership",
      "outputs": [],
      "stateMutability": "nonpayable",
      "type": "function"
    }
  ],
  "bytecode": "0x60806040523480156200001157600080fd5b506040518060400160405280600781526020017f4d79546f6b656e000000000000000000000000000000000000000000000000008152506040518060400160405280600381526020017f4d544b0000000000000000000000000000000000000000000000000000000000815250816000908051906020019062000096929190620001a6565b508060019080519060200190620000af929190620001a6565b505050620000d2620000c6620000d860201b60201c565b620000e060201b60201c565b620002bb565b600033905090565b6000600760009054906101000a900473ffffffffffffffffffffffffffffffffffffffff16905081600760006101000a81548173ffffffffffffffffffffffffffffffffffffffff021916908373ffffffffffffffffffffffffffffffffffffffff1602179055508173ffffffffffffffffffffffffffffffffffffffff168173ffffffffffffffffffffffffffffffffffffffff167f8be0079c531659141344cd1fd0a4f28419497f9722a3daafe3b4186f6b6457e060405160405180910390a35050565b828054620001b49062000285565b90600052602060002090601f016020900481019282620001d8576000855562000224565b82601f10620001f357805160ff191683800117855562000224565b8280016001018555821562000224579182015b828111156200022357825182559160200191906001019062000206565b5b50905062000233919062000237565b5090565b5b808211156200025257600081600090555060010162000238565b5090565b7f4e487b7100000000000000000000000000000000000000000000000000000000600052602260045260246000fd5b600060028204905060018216806200029e57607f821691505b60208210811415620002b557620002b462000256565b5b50919050565b61343080620002cb6000396000f3fe608060405234801561001057600080fd5b50600436106101165760003560e01c806370a08231116100a2578063a22cb46511610071578063a22cb465146102cd578063b88d4fde146102e9578063c87b56dd14610305578063e985e9c514610335578063f2fde38b1461036557610116565b806370a0823114610257578063715018a6146102875780638da5cb5b1461029157806395d89b41146102af57610116565b806314f6193c116100e957806314f6193c146101b557806323b872dd146101d35780633be31177146101ef57806342842e0e1461020b5780636352211e1461022757610116565b806301ffc9a71461011b57806306fdde031461014b578063081812fc14610169578063095ea7b314610199575b600080fd5b610135600480360381019061013091906121c5565b610381565b604051610142919061220d565b60405180910390f35b610153610393565b60405161016091906122c1565b60405180910390f35b610183600480360381019061017e9190612319565b610425565b6040516101909190612387565b60405180910390f35b6101b360048036038101906101ae91906123ce565b61046b565b005b6101bd610583565b6040516101ca919061259a565b60405180910390f35b6101ed60048036038101906101e891906125bc565b610888565b005b61020960048036038101906102049190612744565b6108e8565b005b610225600480360381019061022091906125bc565b610a01565b005b610241600480360381019061023c9190612319565b610a21565b60405161024e9190612387565b60405180910390f35b610271600480360381019061026c919061281b565b610aa8565b60405161027e9190612857565b60405180910390f35b61028f610b60565b005b610299610b74565b6040516102a69190612387565b60405180910390f35b6102b7610b9e565b6040516102c491906122c1565b60405180910390f35b6102e760048036038101906102e2919061289e565b610c30565b005b61030360048036038101906102fe919061297f565b610c46565b005b61031f600480360381019061031a9190612319565b610ca8565b60405161032c91906122c1565b60405180910390f35b61034f600480360381019061034a9190612a02565b610cba565b60405161035c919061220d565b60405180910390f35b61037f600480360381019061037a919061281b565b610d4e565b005b600061038c82610dd2565b9050919050565b6060600080546103a290612a71565b80601f01602080910402602001604051908101604052809291908181526020018280546103ce90612a71565b801561041b5780601f106103f05761010080835404028352916020019161041b565b820191906000526020600020905b8154815290600101906020018083116103fe57829003601f168201915b5050505050905090565b600061043082610e33565b6004600083815260200190815260200160002060009054906101000a900473ffffffffffffffffffffffffffffffffffffffff169050919050565b600061047682610a21565b90508073ffffffffffffffffffffffffffffffffffffffff168373ffffffffffffffffffffffffffffffffffffffff1614156104e7576040517f08c379a00000000000000000000000000000000000000000000000000000000081526004016104de90612b15565b60405180910390fd5b8073ffffffffffffffffffffffffffffffffffffffff16610506610e7e565b73ffffffffffffffffffffffffffffffffffffffff16148061053557506105348161052f610e7e565b610cba565b5b610574576040517f08c379a000000000000000000000000000000000000000000000000000000000815260040161056b90612ba7565b60405180910390fd5b61057e8383610e86565b505050565b6060600061059033610aa8565b905060008167ffffffffffffffff8111156105ae576105ad612619565b5b6040519080825280602002602001820160405280156105e757816020015b6105d461208e565b8152602001906001900390816105cc5790505b5090506000600960003373ffffffffffffffffffffffffffffffffffffffff1673ffffffffffffffffffffffffffffffffffffffff168152602001908152602001600020905060005b8381101561087e57600082828154811061064d5761064c612bc7565b5b906000526020600020015490506040518060800160405280828152602001600a6000848152602001908152602001600020805461068990612a71565b80601f01602080910402602001604051908101604052809291908181526020018280546106b590612a71565b80156107025780601f106106d757610100808354040283529160200191610702565b820191906000526020600020905b8154815290600101906020018083116106e557829003601f168201915b50505050508152602001600b6000848152602001908152602001600020805461072a90612a71565b80601f016020809104026020016040519081016040528092919081815260200182805461075690612a71565b80156107a35780601f10610778576101008083540402835291602001916107a3565b820191906000526020600020905b81548152906001019060200180831161078657829003601f168201915b50505050508152602001600c600084815260200190815260200160002080546107cb90612a71565b80601f01602080910402602001604051908101604052809291908181526020018280546107f790612a71565b80156108445780601f1061081957610100808354040283529160200191610844565b820191906000526020600020905b81548152906001019060200180831161082757829003601f168201915b505050505081525084838151811061085f5761085e612bc7565b5b602002602001018190525050808061087690612c25565b915050610630565b5081935050505090565b610899610893610e7e565b82610f3f565b6108d8576040517f08c379a00000000000000000000000000000000000000000000000000000000081526004016108cf90612ce0565b60405180910390fd5b6108e3838383610fd4565b505050565b6108f06112ce565b60006108fc600861134c565b9050610908600861135a565b6109123382611370565b61091c818661138e565b600960003373ffffffffffffffffffffffffffffffffffffffff1673ffffffffffffffffffffffffffffffffffffffff16815260200190815260200160002081908060018154018082558091505060019003906000526020600020016000909190919091505583600a600083815260200190815260200160002090805190602001906109a99291906120b6565b5082600b600083815260200190815260200160002090805190602001906109d19291906120b6565b5081600c600083815260200190815260200160002090805190602001906109f99291906120b6565b505050505050565b610a1c83838360405180602001604052806000815250610c46565b505050565b600080610a2d83611439565b9050600073ffffffffffffffffffffffffffffffffffffffff168173ffffffffffffffffffffffffffffffffffffffff161415610a9f576040517f08c379a0000000000000000000000000000000000000000000000000000000008152600401610a9690612d4c565b60405180910390fd5b80915050919050565b60008073ffffffffffffffffffffffffffffffffffffffff168273ffffffffffffffffffffffffffffffffffffffff161415610b19576040517f08c379a0000000000000000000000000000000000000000000000000000000008152600401610b1090612dde565b60405180910390fd5b600360008373ffffffffffffffffffffffffffffffffffffffff1673ffffffffffffffffffffffffffffffffffffffff168152602001908152602001600020549050919050565b610b686112ce565b610b726000611476565b565b6000600760009054906101000a900473ffffffffffffffffffffffffffffffffffffffff16905090565b606060018054610bad90612a71565b80601f0160208091040260200160405190810160405280929190818152602001828054610bd990612a71565b8015610c265780601f10610bfb57610100808354040283529160200191610c26565b820191906000526020600020905b815481529060010190602001808311610c0957829003601f168201915b5050505050905090565b610c42610c3b610e7e565b838361153c565b5050565b610c57610c51610e7e565b83610f3f565b610c96576040517f08c379a0000000000000000000000000000000000000000000000000000000008152600401610c8d90612ce0565b60405180910390fd5b610ca2848484846116a9565b50505050565b6060610cb382611705565b9050919050565b6000600560008473ffffffffffffffffffffffffffffffffffffffff1673ffffffffffffffffffffffffffffffffffffffff16815260200190815260200160002060008373ffffffffffffffffffffffffffffffffffffffff1673ffffffffffffffffffffffffffffffffffffffff16815260200190815260200160002060009054906101000a900460ff16905092915050565b610d566112ce565b600073ffffffffffffffffffffffffffffffffffffffff168173ffffffffffffffffffffffffffffffffffffffff161415610dc6576040517f08c379a0000000000000000000000000000000000000000000000000000000008152600401610dbd90612e70565b60405180910390fd5b610dcf81611476565b50565b6000634906490660e01b7bffffffffffffffffffffffffffffffffffffffffffffffffffffffff1916827bffffffffffffffffffffffffffffffffffffffffffffffffffffffff19161480610e2c5750610e2b82611818565b5b9050919050565b610e3c816118fa565b610e7b576040517f08c379a0000000000000000000000000000000000000000000000000000000008152600401610e7290612d4c565b60405180910390fd5b50565b600033905090565b816004600083815260200190815260200160002060006101000a81548173ffffffffffffffffffffffffffffffffffffffff021916908373ffffffffffffffffffffffffffffffffffffffff160217905550808273ffffffffffffffffffffffffffffffffffffffff16610ef983610a21565b73ffffffffffffffffffffffffffffffffffffffff167f8c5be1e5ebec7d5bd14f71427d1e84f3dd0314c0f7b2291e5b200ac8c7c3b92560405160405180910390a45050565b600080610f4b83610a21565b90508073ffffffffffffffffffffffffffffffffffffffff168473ffffffffffffffffffffffffffffffffffffffff161480610f8d5750610f8c8185610cba565b5b80610fcb57508373ffffffffffffffffffffffffffffffffffffffff16610fb384610425565b73ffffffffffffffffffffffffffffffffffffffff16145b91505092915050565b8273ffffffffffffffffffffffffffffffffffffffff16610ff482610a21565b73ffffffffffffffffffffffffffffffffffffffff161461104a576040517f08c379a000000000000000000000000000000000000000000000000000000000815260040161104190612f02565b60405180910390fd5b600073ffffffffffffffffffffffffffffffffffffffff168273ffffffffffffffffffffffffffffffffffffffff1614156110ba576040517f08c379a00000000000000000000000000000000000000000000000000000000081526004016110b190612f94565b60405180910390fd5b6110c7838383600161193b565b8273ffffffffffffffffffffffffffffffffffffffff166110e782610a21565b73ffffffffffffffffffffffffffffffffffffffff161461113d576040517f08c379a000000000000000000000000000000000000000000000000000000000815260040161113490612f02565b60405180910390fd5b6004600082815260200190815260200160002060006101000a81549073ffffffffffffffffffffffffffffffffffffffff02191690556001600360008573ffffffffffffffffffffffffffffffffffffffff1673ffffffffffffffffffffffffffffffffffffffff168152602001908152602001600020600082825403925050819055506001600360008473ffffffffffffffffffffffffffffffffffffffff1673ffffffffffffffffffffffffffffffffffffffff16815260200190815260200160002060008282540192505081905550816002600083815260200190815260200160002060006101000a81548173ffffffffffffffffffffffffffffffffffffffff021916908373ffffffffffffffffffffffffffffffffffffffff160217905550808273ffffffffffffffffffffffffffffffffffffffff168473ffffffffffffffffffffffffffffffffffffffff167fddf252ad1be2c89b69c2b068fc378daa952ba7f163c4a11628f55a4df523b3ef60405160405180910390a46112c98383836001611941565b505050565b6112d6610e7e565b73ffffffffffffffffffffffffffffffffffffffff166112f4610b74565b73ffffffffffffffffffffffffffffffffffffffff161461134a576040517f08c379a000000000000000000000000000000000000000000000000000000000815260040161134190613000565b60405180910390fd5b565b600081600001549050919050565b6001816000016000828254019250508190555050565b61138a828260405180602001604052806000815250611947565b5050565b611397826118fa565b6113d6576040517f08c379a00000000000000000000000000000000000000000000000000000000081526004016113cd90613092565b60405180910390fd5b806006600084815260200190815260200160002090805190602001906113fd9291906120b6565b507ff8e1a15aba9398e019f0b49df1a4fde98ee17ae345cb5f6b5e2c27f5033e8ce78260405161142d9190612857565b60405180910390a15050565b60006002600083815260200190815260200160002060009054906101000a900473ffffffffffffffffffffffffffffffffffffffff169050919050565b6000600760009054906101000a900473ffffffffffffffffffffffffffffffffffffffff16905081600760006101000a81548173ffffffffffffffffffffffffffffffffffffffff021916908373ffffffffffffffffffffffffffffffffffffffff1602179055508173ffffffffffffffffffffffffffffffffffffffff168173ffffffffffffffffffffffffffffffffffffffff167f8be0079c531659141344cd1fd0a4f28419497f9722a3daafe3b4186f6b6457e060405160405180910390a35050565b8173ffffffffffffffffffffffffffffffffffffffff168373ffffffffffffffffffffffffffffffffffffffff1614156115ab576040517f08c379a00000000000000000000000000000000000000000000000000000000081526004016115a2906130fe565b60405180910390fd5b80600560008573ffffffffffffffffffffffffffffffffffffffff1673ffffffffffffffffffffffffffffffffffffffff16815260200190815260200160002060008473ffffffffffffffffffffffffffffffffffffffff1673ffffffffffffffffffffffffffffffffffffffff16815260200190815260200160002060006101000a81548160ff0219169083151502179055508173ffffffffffffffffffffffffffffffffffffffff168373ffffffffffffffffffffffffffffffffffffffff167f17307eab39ab6107e8899845ad3d59bd9653f200f220920489ca2b5937696c318360405161169c919061220d565b60405180910390a3505050565b6116b4848484610fd4565b6116c0848484846119a2565b6116ff576040517f08c379a00000000000000000000000000000000000000000000000000000000081526004016116f690613190565b60405180910390fd5b50505050565b606061171082610e33565b600060066000848152602001908152602001600020805461173090612a71565b80601f016020809104026020016040519081016040528092919081815260200182805461175c90612a71565b80156117a95780601f1061177e576101008083540402835291602001916117a9565b820191906000526020600020905b81548152906001019060200180831161178c57829003601f168201915b5050505050905060006117ba611b39565b90506000815114156117d0578192505050611813565b6000825111156118055780826040516020016117ed9291906131ec565b60405160208183030381529060405292505050611813565b61180e84611b50565b925050505b919050565b60007f80ac58cd000000000000000000000000000000000000000000000000000000007bffffffffffffffffffffffffffffffffffffffffffffffffffffffff1916827bffffffffffffffffffffffffffffffffffffffffffffffffffffffff191614806118e357507f5b5e139f000000000000000000000000000000000000000000000000000000007bffffffffffffffffffffffffffffffffffffffffffffffffffffffff1916827bffffffffffffffffffffffffffffffffffffffffffffffffffffffff1916145b806118f357506118f282611bb8565b5b9050919050565b60008073ffffffffffffffffffffffffffffffffffffffff1661191c83611439565b73ffffffffffffffffffffffffffffffffffffffff1614159050919050565b50505050565b50505050565b6119518383611c22565b61195e60008484846119a2565b61199d576040517f08c379a000000000000000000000000000000000000000000000000000000000815260040161199490613190565b60405180910390fd5b505050565b60006119c38473ffffffffffffffffffffffffffffffffffffffff16611e40565b15611b2c578373ffffffffffffffffffffffffffffffffffffffff1663150b7a026119ec610e7e565b8786866040518563ffffffff1660e01b8152600401611a0e9493929190613265565b602060405180830381600087803b158015611a2857600080fd5b505af1925050508015611a5957506040513d601f19601f82011682018060405250810190611a5691906132c6565b60015b611adc573d8060008114611a89576040519150601f19603f3d011682016040523d82523d6000602084013e611a8e565b606091505b50600081511415611ad4576040517f08c379a0000000000000000000000000000000000000000000000000000000008152600401611acb90613190565b60405180910390fd5b805181602001fd5b63150b7a0260e01b7bffffffffffffffffffffffffffffffffffffffffffffffffffffffff1916817bffffffffffffffffffffffffffffffffffffffffffffffffffffffff191614915050611b31565b600190505b949350505050565b606060405180602001604052806000815250905090565b6060611b5b82610e33565b6000611b65611b39565b90506000815111611b855760405180602001604052806000815250611bb0565b80611b8f84611e63565b604051602001611ba09291906131ec565b6040516020818303038152906040525b915050919050565b60007f01ffc9a7000000000000000000000000000000000000000000000000000000007bffffffffffffffffffffffffffffffffffffffffffffffffffffffff1916827bffffffffffffffffffffffffffffffffffffffffffffffffffffffff1916149050919050565b600073ffffffffffffffffffffffffffffffffffffffff168273ffffffffffffffffffffffffffffffffffffffff161415611c92576040517f08c379a0000000000000000000000000000000000000000000000000000000008152600401611c899061333f565b60405180910390fd5b611c9b816118fa565b15611cdb576040517f08c379a0000000000000000000000000000000000000000000000000000000008152600401611cd2906133ab565b60405180910390fd5b611ce960008383600161193b565b611cf2816118fa565b15611d32576040517f08c379a0000000000000000000000000000000000000000000000000000000008152600401611d29906133ab565b60405180910390fd5b6001600360008473ffffffffffffffffffffffffffffffffffffffff1673ffffffffffffffffffffffffffffffffffffffff16815260200190815260200160002060008282540192505081905550816002600083815260200190815260200160002060006101000a81548173ffffffffffffffffffffffffffffffffffffffff021916908373ffffffffffffffffffffffffffffffffffffffff160217905550808273ffffffffffffffffffffffffffffffffffffffff16600073ffffffffffffffffffffffffffffffffffffffff167fddf252ad1be2c89b69c2b068fc378daa952ba7f163c4a11628f55a4df523b3ef60405160405180910390a4611e3c600083836001611941565b5050565b6000808273ffffffffffffffffffffffffffffffffffffffff163b119050919050565b606060006001611e7284611f3b565b01905060008167ffffffffffffffff811115611e9157611e90612619565b5b6040519080825280601f01601f191660200182016040528015611ec35781602001600182028036833780820191505090505b509050600082602001820190505b600115611f30578080600190039150507f3031323334353637383961626364656600000000000000000000000000000000600a86061a8153600a8581611f1a57611f196133cb565b5b0494506000851415611f2b57611f30565b611ed1565b819350505050919050565b600080600090507a184f03e93ff9f4daa797ed6e38ed64bf6a1f0100000000000000008310611f99577a184f03e93ff9f4daa797ed6e38ed64bf6a1f0100000000000000008381611f8f57611f8e6133cb565b5b0492506040810190505b6d04ee2d6d415b85acef81000000008310611fd6576d04ee2d6d415b85acef81000000008381611fcc57611fcb6133cb565b5b0492506020810190505b662386f26fc10000831061200557662386f26fc100008381611ffb57611ffa6133cb565b5b0492506010810190505b6305f5e100831061202e576305f5e1008381612024576120236133cb565b5b0492506008810190505b6127108310612053576127108381612049576120486133cb565b5b0492506004810190505b60648310612076576064838161206c5761206b6133cb565b5b0492506002810190505b600a8310612085576001810190505b80915050919050565b6040518060800160405280600081526020016060815260200160608152602001606081525090565b8280546120c290612a71565b90600052602060002090601f0160209004810192826120e4576000855561212b565b82601f106120fd57805160ff191683800117855561212b565b8280016001018555821561212b579182015b8281111561212a57825182559160200191906001019061210f565b5b509050612138919061213c565b5090565b5b8082111561215557600081600090555060010161213d565b5090565b6000604051905090565b600080fd5b600080fd5b60007fffffffff0000000000000000000000000000000000000000000000000000000082169050919050565b6121a28161216d565b81146121ad57600080fd5b50565b6000813590506121bf81612199565b92915050565b6000602082840312156121db576121da612163565b5b60006121e9848285016121b0565b91505092915050565b60008115159050919050565b612207816121f2565b82525050565b600060208201905061222260008301846121fe565b92915050565b600081519050919050565b600082825260208201905092915050565b60005b83811015612262578082015181840152602081019050612247565b83811115612271576000848401525b50505050565b6000601f19601f8301169050919050565b600061229382612228565b61229d8185612233565b93506122ad818560208601612244565b6122b681612277565b840191505092915050565b600060208201905081810360008301526122db8184612288565b905092915050565b6000819050919050565b6122f6816122e3565b811461230157600080fd5b50565b600081359050612313816122ed565b92915050565b60006020828403121561232f5761232e612163565b5b600061233d84828501612304565b91505092915050565b600073ffffffffffffffffffffffffffffffffffffffff82169050919050565b600061237182612346565b9050919050565b61238181612366565b82525050565b600060208201905061239c6000830184612378565b92915050565b6123ab81612366565b81146123b657600080fd5b50565b6000813590506123c8816123a2565b92915050565b600080604083850312156123e5576123e4612163565b5b60006123f3858286016123b9565b925050602061240485828601612304565b9150509250929050565b600081519050919050565b600082825260208201905092915050565b6000819050602082019050919050565b612443816122e3565b82525050565b600082825260208201905092915050565b600061246582612228565b61246f8185612449565b935061247f818560208601612244565b61248881612277565b840191505092915050565b60006080830160008301516124ab600086018261243a565b50602083015184820360208601526124c3828261245a565b915050604083015184820360408601526124dd828261245a565b915050606083015184820360608601526124f7828261245a565b9150508091505092915050565b60006125108383612493565b905092915050565b6000602082019050919050565b60006125308261240e565b61253a8185612419565b93508360208202850161254c8561242a565b8060005b8581101561258857848403895281516125698582612504565b945061257483612518565b925060208a01995050600181019050612550565b50829750879550505050505092915050565b600060208201905081810360008301526125b48184612525565b905092915050565b6000806000606084860312156125d5576125d4612163565b5b60006125e3868287016123b9565b93505060206125f4868287016123b9565b925050604061260586828701612304565b9150509250925092565b600080fd5b600080fd5b7f4e487b7100000000000000000000000000000000000000000000000000000000600052604160045260246000fd5b61265182612277565b810181811067ffffffffffffffff821117156126705761266f612619565b5b80604052505050565b6000612683612159565b905061268f8282612648565b919050565b600067ffffffffffffffff8211156126af576126ae612619565b5b6126b882612277565b9050602081019050919050565b82818337600083830152505050565b60006126e76126e284612694565b612679565b90508281526020810184848401111561270357612702612614565b5b61270e8482856126c5565b509392505050565b600082601f83011261272b5761272a61260f565b5b813561273b8482602086016126d4565b91505092915050565b6000806000806080858703121561275e5761275d612163565b5b600085013567ffffffffffffffff81111561277c5761277b612168565b5b61278887828801612716565b945050602085013567ffffffffffffffff8111156127a9576127a8612168565b5b6127b587828801612716565b935050604085013567ffffffffffffffff8111156127d6576127d5612168565b5b6127e287828801612716565b925050606085013567ffffffffffffffff81111561280357612802612168565b5b61280f87828801612716565b91505092959194509250565b60006020828403121561283157612830612163565b5b600061283f848285016123b9565b91505092915050565b612851816122e3565b82525050565b600060208201905061286c6000830184612848565b92915050565b61287b816121f2565b811461288657600080fd5b50565b60008135905061289881612872565b92915050565b600080604083850312156128b5576128b4612163565b5b60006128c3858286016123b9565b92505060206128d485828601612889565b9150509250929050565b600067ffffffffffffffff8211156128f9576128f8612619565b5b61290282612277565b9050602081019050919050565b600061292261291d846128de565b612679565b90508281526020810184848401111561293e5761293d612614565b5b6129498482856126c5565b509392505050565b600082601f8301126129665761296561260f565b5b813561297684826020860161290f565b91505092915050565b6000806000806080858703121561299957612998612163565b5b60006129a7878288016123b9565b94505060206129b8878288016123b9565b93505060406129c987828801612304565b925050606085013567ffffffffffffffff8111156129ea576129e9612168565b5b6129f687828801612951565b91505092959194509250565b60008060408385031215612a1957612a18612163565b5b6000612a27858286016123b9565b9250506020612a38858286016123b9565b9150509250929050565b7f4e487b7100000000000000000000000000000000000000000000000000000000600052602260045260246000fd5b60006002820490506001821680612a8957607f821691505b60208210811415612a9d57612a9c612a42565b5b50919050565b7f4552433732313a20617070726f76616c20746f2063757272656e74206f776e6560008201527f7200000000000000000000000000000000000000000000000000000000000000602082015250565b6000612aff602183612233565b9150612b0a82612aa3565b604082019050919050565b60006020820190508181036000830152612b2e81612af2565b9050919050565b7f4552433732313a20617070726f76652063616c6c6572206973206e6f7420746f60008201527f6b656e206f776e6572206f7220617070726f76656420666f7220616c6c000000602082015250565b6000612b91603d83612233565b9150612b9c82612b35565b604082019050919050565b60006020820190508181036000830152612bc081612b84565b9050919050565b7f4e487b7100000000000000000000000000000000000000000000000000000000600052603260045260246000fd5b7f4e487b7100000000000000000000000000000000000000000000000000000000600052601160045260246000fd5b6000612c30826122e3565b91507fffffffffffffffffffffffffffffffffffffffffffffffffffffffffffffffff821415612c6357612c62612bf6565b5b600182019050919050565b7f4552433732313a2063616c6c6572206973206e6f7420746f6b656e206f776e6560008201527f72206f7220617070726f76656400000000000000000000000000000000000000602082015250565b6000612cca602d83612233565b9150612cd582612c6e565b604082019050919050565b60006020820190508181036000830152612cf981612cbd565b9050919050565b7f4552433732313a20696e76616c696420746f6b656e2049440000000000000000600082015250565b6000612d36601883612233565b9150612d4182612d00565b602082019050919050565b60006020820190508181036000830152612d6581612d29565b9050919050565b7f4552433732313a2061646472657373207a65726f206973206e6f74206120766160008201527f6c6964206f776e65720000000000000000000000000000000000000000000000602082015250565b6000612dc8602983612233565b9150612dd382612d6c565b604082019050919050565b60006020820190508181036000830152612df781612dbb565b9050919050565b7f4f776e61626c653a206e6577206f776e657220697320746865207a65726f206160008201527f6464726573730000000000000000000000000000000000000000000000000000602082015250565b6000612e5a602683612233565b9150612e6582612dfe565b604082019050919050565b60006020820190508181036000830152612e8981612e4d565b9050919050565b7f4552433732313a207472616e736665722066726f6d20696e636f72726563742060008201527f6f776e6572000000000000000000000000000000000000000000000000000000602082015250565b6000612eec602583612233565b9150612ef782612e90565b604082019050919050565b60006020820190508181036000830152612f1b81612edf565b9050919050565b7f4552433732313a207472616e7366657220746f20746865207a65726f2061646460008201527f7265737300000000000000000000000000000000000000000000000000000000602082015250565b6000612f7e602483612233565b9150612f8982612f22565b604082019050919050565b60006020820190508181036000830152612fad81612f71565b9050919050565b7f4f776e61626c653a2063616c6c6572206973206e6f7420746865206f776e6572600082015250565b6000612fea602083612233565b9150612ff582612fb4565b602082019050919050565b6000602082019050818103600083015261301981612fdd565b9050919050565b7f45524337323155524953746f726167653a2055524920736574206f66206e6f6e60008201527f6578697374656e7420746f6b656e000000000000000000000000000000000000602082015250565b600061307c602e83612233565b915061308782613020565b604082019050919050565b600060208201905081810360008301526130ab8161306f565b9050919050565b7f4552433732313a20617070726f766520746f2063616c6c657200000000000000600082015250565b60006130e8601983612233565b91506130f3826130b2565b602082019050919050565b60006020820190508181036000830152613117816130db565b9050919050565b7f4552433732313a207472616e7366657220746f206e6f6e20455243373231526560008201527f63656976657220696d706c656d656e7465720000000000000000000000000000602082015250565b600061317a603283612233565b91506131858261311e565b604082019050919050565b600060208201905081810360008301526131a98161316d565b9050919050565b600081905092915050565b60006131c682612228565b6131d081856131b0565b93506131e0818560208601612244565b80840191505092915050565b60006131f882856131bb565b915061320482846131bb565b91508190509392505050565b600081519050919050565b600082825260208201905092915050565b600061323782613210565b613241818561321b565b9350613251818560208601612244565b61325a81612277565b840191505092915050565b600060808201905061327a6000830187612378565b6132876020830186612378565b6132946040830185612848565b81810360608301526132a6818461322c565b905095945050505050565b6000815190506132c081612199565b92915050565b6000602082840312156132dc576132db612163565b5b60006132ea848285016132b1565b91505092915050565b7f4552433732313a206d696e7420746f20746865207a65726f2061646472657373600082015250565b6000613329602083612233565b9150613334826132f3565b602082019050919050565b600060208201905081810360008301526133588161331c565b9050919050565b7f4552433732313a20746f6b656e20616c7265616479206d696e74656400000000600082015250565b6000613395601c83612233565b91506133a08261335f565b602082019050919050565b600060208201905081810360008301526133c481613388565b9050919050565b7f4e487b7100000000000000000000000000000000000000000000000000000000600052601260045260246000fdfea2646970667358221220535e56be88681b1097c8b08f9462d2879c9253bfae6a153a49e78344993748f364736f6c63430008090033",
  "linkReferences": {},
  "deployedLinkReferences": {}
}